:0A11DA0000010202030304040505EE
:10053C00E4F52CF52BF52AF529C203C200C202C240
:10054C0001120BB87E0D7F008E0A8F0B75120D7584
:10055C00131275080D75091C75100D751135751470
:10056C000D75154EEE54C0700302063D752D0075C9
:10057C002E808E2F8F30C374809FFF740D9ECF24DE
:10058C0002CF3400FEE48F288E27F526F525F524BE
:10059C00F523F522F521AF28AE27AD26AC25AB24EB
:1005AC00AA23A922A821C31207EF5033E530252432
:1005BC00F582E52F3523F583E0FFE52E2524F58222
:1005CC00E52D3523F583EFF0E5242401F524E435FE
:1005DC0023F523E43522F522E43521F52180B78576
:1005EC002D0A852E0B74002480FF740D34FFFEC37E
:1005FC00E5139FF513E5129EF512C3E50D9FF50D5E
:10060C00E50C9EF50CC3E50F9FF50FE50E9EF50E60
:10061C00C3E5099FF509E5089EF508C3E5119FF5AB
:10062C0011E5109EF510C3E5159FF515E5149EF523
:10063C0014D2E843D82090E668E04409F090E65CD8
:10064C00E0443DF0D2AF90E680E020E10CD2051200
:10065C00103C7FF47E01120DDB90E680E054F7F045
:10066C00538EF8C203300105120304C20130032972
:10067C00120CFE5024C2031210EE20001690E682DB
:10068C00E030E704E020E1EF90E682E030E604E0C1
:0E069C0020E0E412106B121204120E2180C72F
:0B11CF0090E50DE030E402C322D322C3
:1003040090E6B9E070030203C314700302044024AE
:10031400FE70030204C324FB70030203BD147003C4
:100324000203B71470030203AB1470030203B12475
:10033400056003020528121206400302053490E604
:10034400BBE024FE602714603824FD60111460278C
:1003540024067050E50A90E6B3F0E50B803C1211D8
:10036400CF503EE51290E6B3F0E513802DE50C90F6
:10037400E6B3F0E50D8023E50E90E6B3F0E50F80DB
:100384001990E6BAE0FF1210C3AA06A9077B01EA96
:10039400494B600DEE90E6B3F0EF90E6B4F0020541
:1003A400340205230205231211BD0205341211EC97
:1003B4000205341211E40205341211AB02053412A1
:1003C4001208400302053490E6B8E0247F60151457
:1003D400601924027063A200E43325E0FFA202E462
:1003E400334F8041E490E740F0803F90E6BCE05416
:1003F4007EFF7E00E0D394807C0040047D01800277
:100404007D00EC4EFEED4F24DAF58274113EF58347
:10041400E493FF3395E0FEEF24A1FFEE34E68F82F0
:10042400F583E0540190E740F0E4A3F090E68AF00D
:1004340090E68B7402F002053402052312120A407E
:100444000302053490E6B8E024FE6016240260033B
:1004540002053490E6BAE0B40105C2000205340294
:10046400052390E6BAE0705590E6BCE0547EFF7E2A
:1004740000E0D394807C0040047D0180027D00EC88
:100484004EFEED4F24DAF58274113EF583E493FFBA
:100494003395E0FEEF24A1FFEE34E68F82F583E08E
:1004A40054FEF090E6BCE05480131313541FFFE095
:1004B400540F2F90E683F0E04420F08073806012A4
:1004C400120C506C90E6B8E024FE601A2402704FBF
:1004D40090E6BAE0B40104D200805590E6BAE0B4E4
:1004E4000202804C803990E6BCE0547EFF7E00E03E
:1004F400D394807C0040047D0180027D00EC4EFE9C
:10050400ED4F24DAF58274113EF583E493FF3395BD
:10051400E0FEEF24A1FFEE34E68F82F583800D9098
:10052400E6A08008120080500790E6A0E04401F0A5
:0705340090E6A0E04480F016
:01053B00229D
:030033000211FCBB
:0411FC0053D8EF32A3
:100D00001201000200000040A92A00900100010227
:100D100000010A060002000000400100090219005B
:100D200001010080FA0904000001FFFFFF00070530
:100D30008202000200090219000101008032090448
:100D4000000001FFFFFF00070582024000000403CE
:100D50000904080349004300490026033900300014
:100D6000300030002000530045005200490045008B
:100D700053002000430041004D0045005200410057
:020D8000000071
:1009C700608014000101010101010107000000001E
:1009D7000000000000000000000000000000000010
:1009E7000000003F010101010101010700000000B3
:1009F70000000000000000000000000000000000F0
:100A07000000003F81919CAF97AA010701010103F4
:100A170001010000000000000000000000000900C4
:100A27000009003F01010101010101070000000069
:100A370000000000000000000000000000000000AF
:100A47000000003F60241487000000000000000041
:100A5700000000000000000000000000000000008F
:100A6700000000000000000000000000471480E0C4
:060A7700100000EE4E002D
:1009080000000090E60174CAF090E6F574FFF090DC
:100918001480E090E6F3F0901481E090E6C3F09044
:100928001482E090E6C1F0901483E090E6C2F09063
:100938001485E090E6C0F0901486E090E6F4F07537
:10094800AF077414F59A7400F59B759DE4E4F59E61
:10095800FF90E67BE090E67CF00FBF80F490E671B4
:1009680074FFF0F5B490E672E04480F043B680007E
:100978000000E490E6C4F000000090E6C5F0901492
:1009880087E090E6C6F0901488E090E6C7F09014EF
:1009980089E090E6C8F090148AE090E6C9F09014D7
:1009A8008BE090E6CAF090148CE090E6CBF09014BF
:0E09B8008DE090E6CCF090148EE090E6CDF04D
:0109C600220E
:10106B0090E682E030E004E020E60B90E682E03090
:10107B00E119E030E71590E680E04401F07F147E43
:0C108B0000120DDB90E680E054FEF02225
:10103C0030050990E680E0440AF0800790E680E0F5
:10104C004408F07FDC7E05120DDB90E65D74FFF04A
:0F105C0090E65FF05391EF90E680E054F7F022BA
:100DDB008E318F3290E600E054187012E532240108
:100DEB00FFE43531C313F531EF13F532801590E67F
:100DFB0000E05418FFBF100BE53225E0F532E5316A
:100E0B0033F531E5321532AE31700215314E6005D6
:060E1B0012110280EE221C
:0210C300A9077B
:1010C500AE14AF158F828E83A3E064037017AD0154
:1010D50019ED7001228F828E83E07C002FFDEC3E9E
:0810E500FEAF0580DFE4FEFF11
:0110ED0022E0
:1010EE0090E682E044C0F090E681F0438701000074
:0410FE0000000022CC
:101102007400F58690FDA57C05A3E582458370F900
:0111120022BA
:03004300020B00AD
:03005300020B009D
:100B000002114F000211950002117F0002116700CF
:100B1000020ED400020E5F0002120E0002120F003D
:100B2000021210000212110002121200021213002F
:100B3000021214000212150002121600021217000F
:100B400002100C0002120F0002121800021219000B
:100B500002121A0002121B0002121C0002121D00D7
:100B600002121E0002120F0002120F0002120F00EA
:100B700002121F00021220000212210002122200A3
:100B80000212230002122400021225000212260083
:100B900002122700021228000212290002122A0063
:100BA00002122B0002122C0002122D0002122E0043
:080BB00002122F0002123000B6
:04120000011000EFEA
:080A7D00014518014751C104B5
:100F0A0043B2025380FDE4FE000EBE20FBE4FDEF77
:100F1A0030E00543800280035380FDE4FE000EBEEC
:100F2A0020FBEFC313FF0DBD08E5438002E4FE007A
:040F3A000EBE20FBCC
:010F3E002290
:100FA800E5BB30E72C90E680E030E725000000E460
:100FB80090E6CFF000000090E6D0F000000090E648
:100FC800D104F000000075BB04000000E5BB30E769
:020FD800FB22FA
:10111300753C14753DAB7B017D207C00AF47120D00
:0F112300829014ABE030E704754519227545182A
:01113200229A
:100BB80090E6007410F000000043B2104380101259
:100BC800090800000090E61274E8F0000000E490C4
:100BD800E613F000000090E615F000000090E6141F
:100BE800F000000090E6047480F00000007402F049
:100BF800000000E4F000000090E6187409F000001E
:100C08000090E6D27402F000000090E620F00000A8
:100C180000E490E621F000000090E65B04F090E626
:100C28005AE04401F0E4F54490E65974FFF090E688
:100C380058E04404F0D2001211F443B20243800297
:030C480002111383
:1010970090E6047480F000000090E6187401F000F8
:1010A700000090E60404F000000090E6187409F0D0
:0C10B700000000E490E604F000000022BD
:100E2100E5446039120FA8E5AA30E0FB90E618749A
:100E310001F0000000E490E690F000000090E691DF
:100E4100F000000090E6187409F0000000E4F54499
:0E0E510090E65974FFF090E658E04404F02259
:020CFE00D322FF
:02120400D322F3
:02120600D322F1
:0811E40090E6BAE0F546D322C3
:1011AB0090E740E546F0E490E68AF090E68B04F099
:0211BB00D3223D
:0811EC0090E6BAE0F543D322BE
:1011BD0090E740E543F0E490E68AF090E68B04F08A
:0211CD00D3222B
:02120800D322EF
:02120A00D322ED
:02120C00D322EB
:1000800090E6B9E0242E602A14603C14700302014B
:10009000531470030201F61470030201F324056087
:1000A0000302030012109790E6F574FFF0C20402F9
:1000B0000302E490E68AF090E68BF090E6A0E02060
:0700C000E10302030280F4DA
:1000C70075324090E740E0F53390E68BE0F534E594
:1000D70033C394405003853332753101E531C395FD
:1000E70034501474402531F582E434E7F583E0FF9A
:1000F700120F0A053180E5E533603AE4F531E53161
:10010700C395325014120CD774402531F582E4346C
:10011700E7F583EFF0053180E5E490E68AF090E6B5
:100127008BE532F0C3E5339532F533C3944050C7BE
:1001370085333280C27F01120F0A7F47120F0AE40C
:0C014700FF120F0A7FB8120F0A02030219
:1001530078AB7C147D017BFF7A1279007E007F04EB
:1001630012077A90E6F574FFF0E4F54490E658F050
:100173005391EF7B037D08FCAF45120A8675320568
:10018300753300753402E532FD7C00AB347EE775D0
:100193003CE7753D40AF45120D82E4F53174AB2564
:1001A30031F582E43414F583E0FF120F0A0531E5DB
:1001B30031C3940440E7E4F531120CD7744225317E
:1001C300F582E434E7F583EFF00531E531C39418A4
:1001D30040E7E4F54490E65974FFF090E658E044B4
:1001E30004F0E490E68AF090E68B741AF0020302BE
:0301F300754750FD
:1001F60090E6BAE0753200F533A3E0FEEE423290A7
:10020600E6BEE0753400F535A3E0FEEE423490E636
:10021600B8E064C060030202A3E53545347003020A
:1002260002FB90E6A0E020E1F9C3E5359440E53411
:100236009400500885343685353780067536007546
:100246003740E4F531C3E5319537E49536501274FD
:10025600402531F582E434E7F58374CDF00531802D
:10026600E4AB377AE779407EE7753CE7753D40AD0C
:1002760033AC32AF47120D82E490E68AF090E68BFB
:10028600E537F02533F533E5363532F532C3E53556
:100296009537F535E5349536F53402021F90E6B804
:1002A600E064407050E5354534604AE490E68AF0F3
:1002B60090E68BF090E6A0E020E1F990E68BE07501
:1002C6003600F537FB7AE779407EE7753CE7753D02
:1002D60040AD33AC32AF47120F3FE5372533F53328
:1002E600E5363532F532C3E5359537F535E53495DE
:0802F60036F53480B075475164
:0502FE008002D322C3C1
:0103030022D7
:10114F00C0E0C083C082D2015391EF90E65D74017D
:08115F00F0D082D083D0E03211
:10117F00C0E0C083C0825391EF90E65D7404F0D05D
:06118F0082D083D0E032A3
:10119500C0E0C083C0825391EF90E65D7402F0D049
:0611A50082D083D0E0328D
:100ED400C0E0C083C08285100C85110D850D82850C
:100EE4000C83A37402F085080E85090F850F828593
:100EF4000E83A37407F05391EF90E65D7410F0D065
:060F040082D083D0E03230
:10116700C0E0C083C082D2035391EF90E65D74085C
:08117700F0D082D083D0E032F9
:100E5F00C0E0C083C08290E680E030E72085080CB8
:100E6F0085090D850D82850C83A37402F085100E04
:100E7F0085110F850F82850E83A37407F05391EFB1
:0D0E8F0090E65D7420F0D082D083D0E03278
:01120E0032AD
:01120F0032AC
:0112100032AB
:0112110032AA
:0112120032A9
:0112130032A8
:0112140032A7
:0112150032A6
:0112160032A5
:0112170032A4
:10100C00C0E0C083C08290E658E4F05391EF90E6C4
:10101C0059E030E20D12109775440190E659E04406
:10102C0004F090E65BE04401F0D082D083D0E03253
:0112180032A3
:0112190032A2
:01121A0032A1
:01121B0032A0
:01121C00329F
:01121D00329E
:01121E00329D
:01121F00329C
:01122000329B
:01122100329A
:011222003299
:011223003298
:011224003297
:011225003296
:011226003295
:011227003294
:011228003293
:011229003292
:01122A003291
:01122B003290
:01122C00328F
:01122D00328E
:01122E00328D
:01122F00328C
:01123000328B
:060A86008F3F8C408D4102
:100A8C00E4FDE53FC394205005E4F5428007E53FC3
:100A9C0013E433F542E5426012E540FFAE050D74F8
:100AAC00AF2EF582E43414F583EFF0AE050D74AF80
:100ABC002EF582E43414F583E541F0AF050D74AFE7
:100ACC002FF582E43414F583EBF07A147BAFAF3F4F
:080ADC00121133AF3F020E9C22
:080F3F008F388C398D3A8B3B91
:100F4700E4F53EE53EC3953B5022053AE53AAC3918
:100F57007002053914FDE53D253EF582E4353CF583
:0C0F670083E0FBAF38120A86053E80D7FD
:010F7300225B
:080D82008F388C398D3A8B3B50
:100D8A00E4FDF53EE538C394205005E4F53F8007BD
:100D9A00E53813E433F53FE53F6012E539FFAE0568
:100DAA000D74AF2EF582E43414F583EFF0AE050D21
:100DBA0074AF2EF582E43414F583E53AF07A147BA5
:100DCA00AFAF38121133AB3DAA3CAD3BAF38020A84
:010DDA00E434
:100CD700C0E0C0D02080FD7821D8FE2080F27908BE
:100CE7007842D8FEA2800013D9F6FF7821D8FE30CB
:070CF70080FDD0D0D0E02207
:0811F400E4F51BD2E9D2AF22A1
:100E9C00AD0790E678E020E6F9C2E990E678E04408
:100EAC0080F0ED25E090E679F090E678E030E0F91E
:100EBC0090E678E04440F090E678E020E6F990E6A1
:080ECC0078E030E1D6D2E92202
:100FDA00AC0790E678E020E6F9E51B702390E67806
:100FEA00E04480F0EC25E090E679F08D16AF03A995
:100FFA00077517018A188919E4F51A751B01D32296
:02100A00C322FF
:100F7400AC0790E678E020E6F9E51B702590E6786A
:100F8400E04480F0EC25E0440190E679F08D16AF62
:100F940003A9077517018A188919E4F51A751B0343
:040FA400D322C3226F
:03004B00020800A8
:10080000C0E0C083C082C085C084C086758600C039
:10081000D075D000C000C001C002C003C006C00730
:1008200090E678E030E206751B060208EA90E6786A
:10083000E020E10CE51B64026006751B070208EA74
:10084000E51B24FE605F14603624FE70030208DBA3
:1008500024FC70030208E7240860030208EAAB17CF
:10086000AA18A919AF1A051A8F827583001207A05A
:1008700090E679F0E51A65167070751B05806B902F
:10088000E679E0AB17AA18A919AE1A8E8275830013
:100890001207CD751B02E5166401704E90E678E0F4
:1008A0004420F08045E51624FEB51A0790E678E06E
:1008B0004420F0E51614B51A0A90E678E04440F0BA
:1008C000751B0090E679E0AB17AA18A919AE1A8E2D
:1008D000827583001207CD051A800F90E678E044F8
:1008E00040F0751B008003751B005391DFD007D0CB
:1008F00006D003D002D001D000D0D0D086D084D092
:0809000085D082D083D0E032E3
:100AE400120F74E51B24FA600E146006240770F3D9
:0C0AF400D322E4F51BD322E4F51BD3222F
:10113300120FDAE51B24FA600E146006240770F31D
:0C114300D322E4F51BD322E4F51BD322D9
:03000000020C4BA4
:0C0C4B00787FE4F6D8FD758147020C921A
:1006AA00E709F608DFFA8046E709F208DFFA803E32
:1006BA0088828C83E709F0A3DFFA8032E309F6081F
:1006CA00DFFA8078E309F208DFFA807088828C8387
:1006DA00E309F0A3DFFA806489828A83E0A3F6083B
:1006EA00DFFA805889828A83E0A3F208DFFA804C15
:1006FA0080D280FA80C680D4806980F280338010EC
:10070A0080A680EA809A80A880DA80E280CA803354
:10071A0089828A83ECFAE493A3C8C582C8CCC583CC
:10072A00CCF0A3C8C582C8CCC583CCDFE9DEE7809C
:10073A000D89828A83E493A3F608DFF9ECFAA9F01B
:10074A00EDFB2289828A83ECFAE0A3C8C582C8CC71
:10075A00C583CCF0A3C8C582C8CCC583CCDFEADE8A
:10076A00E880DB89828A83E493A3F208DFF980CCEC
:10077A0088F0EF60010E4E60C388F0ED2402B404E5
:10078A000050B9F582EB2402B4040050AF2323458C
:06079A0082239006FA73B1
:1007A000BB010CE58229F582E5833AF583E022500E
:1007B00006E92582F8E622BBFE06E92582F8E22258
:0D07C000E58229F582E5833AF583E4932272
:1007CD00F8BB010DE58229F582E5833AF583E8F062
:1007DD00225006E92582C8F622BBFE05E92582C80E
:0207ED00F222F6
:1007EF00EB9FF5F0EA9E42F0E99D42F0E89C45F060
:0107FF0022D7
:100C570002053CE493A3F8E493A34003F68001F272
:100C670008DFF48029E493A3F85407240CC8C3339E
:100C7700C4540F4420C8834004F456800146F6DF6D
:100C8700E4800B01020408102040809009C7E47E2D
:100C9700019360BCA3FF543F30E509541FFEE49362
:100CA700A360010ECF54C025E060A840B8E493A329
:100CB700FAE493A3F8E493A3C8C582C8CAC583CA54
:100CC700F0A3C8C582C8CAC583CADFE9DEE780BE0C
:010A85000070
:00000001FF
